{
  "_format": "hh-sol-artifact-1",
  "contractName": "Voting",
  "sourceName": "contracts/Voting.sol",
  "abi": [
    {
      "anonymous": false,
      "inputs": [
        {
          "indexed": false,
          "internalType": "uint256",
          "name": "pollId",
          "type": "uint256"
        }
      ],
      "name": "PollCreated",
      "type": "event"
    },
    {
      "anonymous": false,
      "inputs": [
        {
          "indexed": false,
          "internalType": "uint256",
          "name": "pollId",
          "type": "uint256"
        },
        {
          "indexed": false,
          "internalType": "address",
          "name": "voter",
          "type": "address"
        },
        {
          "indexed": false,
          "internalType": "uint256",
          "name": "option",
          "type": "uint256"
        }
      ],
      "name": "Voted",
      "type": "event"
    },
    {
      "inputs": [
        {
          "internalType": "string",
          "name": "q",
          "type": "string"
        },
        {
          "internalType": "string[]",
          "name": "opts",
          "type": "string[]"
        },
        {
          "internalType": "uint256",
          "name": "dur",
          "type": "uint256"
        }
      ],
      "name": "createPoll",
      "outputs": [],
      "stateMutability": "nonpayable",
      "type": "function"
    },
    {
      "inputs": [
        {
          "internalType": "uint256",
          "name": "id",
          "type": "uint256"
        }
      ],
      "name": "getResults",
      "outputs": [
        {
          "internalType": "uint256[]",
          "name": "",
          "type": "uint256[]"
        }
      ],
      "stateMutability": "view",
      "type": "function"
    },
    {
      "inputs": [],
      "name": "pollCount",
      "outputs": [
        {
          "internalType": "uint256",
          "name": "",
          "type": "uint256"
        }
      ],
      "stateMutability": "view",
      "type": "function"
    },
    {
      "inputs": [
        {
          "internalType": "uint256",
          "name": "",
          "type": "uint256"
        }
      ],
      "name": "polls",
      "outputs": [
        {
          "internalType": "string",
          "name": "question",
          "type": "string"
        },
        {
          "internalType": "uint256",
          "name": "deadline",
          "type": "uint256"
        },
        {
          "internalType": "address",
          "name": "owner",
          "type": "address"
        }
      ],
      "stateMutability": "view",
      "type": "function"
    },
    {
      "inputs": [
        {
          "internalType": "uint256",
          "name": "id",
          "type": "uint256"
        },
        {
          "internalType": "uint256",
          "name": "opt",
          "type": "uint256"
        }
      ],
      "name": "vote",
      "outputs": [],
      "stateMutability": "nonpayable",
      "type": "function"
    },
    {
      "inputs": [
        {
          "internalType": "uint256",
          "name": "",
          "type": "uint256"
        },
        {
          "internalType": "address",
          "name": "",
          "type": "address"
        }
      ],
      "name": "voted",
      "outputs": [
        {
          "internalType": "bool",
          "name": "",
          "type": "bool"
        }
      ],
      "stateMutability": "view",
      "type": "function"
    }
  ],
  "bytecode": "0x608080604052346100165761086e908161001c8239f35b600080fdfe608080604052600436101561001357600080fd5b60003560e01c9081635277b4ae146106455750806381a60c0d146105a25780639207891d14610584578063ac2f00741461045b578063b384abef146102d55763f8c860f41461006157600080fd5b346102855760603660031901126102855760043567ffffffffffffffff8111610285573660238201121561028557806004013567ffffffffffffffff81116102855736602482840101116102855767ffffffffffffffff60243511610285573660236024350112156102855767ffffffffffffffff60243560040135116102855736602480356004013560051b813501011161028557600260243560040135106102a057610123906000546000526001602052602460406000209301836106ef565b604435420180421161028a5760038201556004810180546001600160a01b0319163317905560005b6024356004013581106101925761018d6000547fab0309b6731a34e8750174d3c2c9591a34a2bf0c1425a30b34122be08d0507396020604051838152a16107fb565b600055005b60248160051b8135010135604219602435360301811215610285576024350167ffffffffffffffff60248201351161028557602481013536036044820113610285576001830154600160401b811015610259578060016101fb920160018601556001850161080a565b91909161026f5761021591604460248301359201906106ef565b600282015490600160401b82101561025957610240826001610254940160028601556002850161080a565b8154906000199060031b1b191690556107fb565b61014b565b634e487b7160e01b600052604160045260246000fd5b634e487b7160e01b600052600060045260246000fd5b600080fd5b634e487b7160e01b600052601160045260246000fd5b60405162461bcd60e51b815260206004820152600d60248201526c6d696e2032206f7074696f6e7360981b6044820152606490fd5b3461028557604036600319011261028557600435602435908060005260209160018352604060002060038101544211610427578260005260028452604060002033600052845260ff604060002054166103f25760018101548210156103bc57907f1abe610cf2bf87e57dcc1181fcf5ac0934e843d8344ab9eed6e86c799f62585e93610367826002606096950161080a565b81549060031b9061037981831c6107fb565b821b91600019901b1916179055826000526002815260406000203360005281526040600020600160ff1982541617905560405192835233908301526040820152a1005b60405162461bcd60e51b815260048101859052600e60248201526d34b73b30b634b21037b83a34b7b760911b6044820152606490fd5b60405162461bcd60e51b815260048101859052600d60248201526c105b1c9958591e481d9bdd1959609a1b6044820152606490fd5b60405162461bcd60e51b815260048101859052600c60248201526b159bdd1a5b99c8195b99195960a21b6044820152606490fd5b3461028557602080600319360112610285576004356000526001808252604060002082604051809360009084549061049282610693565b808552918181169081156105635750600114610525575b50506104b7925003836106cd565b600381015490600460018060a01b039101541692604051938492606084528451928360608601526000955b84871061050c57506080955060008685870101528401526040830152601f80199101168101030190f35b86810182015188880160800152958101958795506104e2565b600086815285812095935091905b81831061054b5750879450508201016104b7876104a9565b85548884018501529485019487945091830191610533565b9150506104b794925060ff191682840152151560051b8201018592876104a9565b34610285576000366003190112610285576020600054604051908152f35b34610285576020806003193601126102855760043560005260019081815260026040600020019160405191828185549182815201908195600052826000209060005b81811061063257505050836105fa9103846106cd565b60405192818401908285525180915260408401949160005b82811061061f5785870386f35b8351875295810195928101928401610612565b82548452928401929185019185016105e4565b34610285576040366003190112610285576024356001600160a01b03811691908290036102855760209160043560005260028352604060002090600052825260ff6040600020541615158152f35b90600182811c921680156106c3575b60208310146106ad57565b634e487b7160e01b600052602260045260246000fd5b91607f16916106a2565b90601f8019910116810190811067ffffffffffffffff82111761025957604052565b90929167ffffffffffffffff81116102595761070b8254610693565b601f81116107b3575b506000601f821160011461074f5781929394600092610744575b50508160011b916000199060031b1c1916179055565b01359050388061072e565b601f198216948382526020918281209281905b88821061079b57505083600195969710610781575b505050811b019055565b0135600019600384901b60f8161c19169055388080610777565b80600184968294958701358155019501920190610762565b600083815260208120601f840160051c810192602085106107f1575b601f0160051c01915b8281106107e6575050610714565b8181556001016107d8565b90925082906107cf565b600019811461028a5760010190565b80548210156108225760005260206000200190600090565b634e487b7160e01b600052603260045260246000fdfea264697066735822122047efdda14408b950f48197fe2b4e941b19d44b58cf021329d179a0bcdf776cc564736f6c63430008140033",
  "linkReferences": {},
  "deployedLinkReferences": {}
}